:100000000C9434000C943E000C943E000C943E0082
:100010000C943E000C943E000C943E000C943E0068
:100020000C943E000C943E000C943E000C943E0058
:100030000C943E000C943E000C943E000C943E0048
:100040000C943E000C943E000C943E000C943E0038
:100050000C943E000C943E000C943E000C943E0028
:100060000C943E000C943E0011241FBECFEFD8E04C
:10007000DEBFCDBF0E9440000C946E000C940000C7
:100080008FEF84B980E021E030E08730A9F487E089
:1000900090E0A901082E01C0440F0A94EAF745B97F
:1000A0004FE756E264E0415050406040E1F700C045
:1000B0000000019771F780E0A901082E01C0440FEC
:1000C0000A94EAF745B94FE756E264E041505040E0
:1000D0006040E1F700C000008F5FD7CFF894FFCFFA
:00000001FF
